:020000040800F2
:100000000020002019070008D5060008D9060008BE
:1000100000000000000000000000000000000000E0
:10002000000000000000000000000000DD060008E5
:100030000000000000000000E1060008E5060008DE
:100040006907000800000000690700086907000848
:1000500069070008690700086907000869070008C0
:100060000000000069070008690700086907000828
:100070006907000869070008690700080000000018
:100080006907000869070008000000006907000808
:100090006907000869070008690700086907000880
:1000A0006907000869070008690700086907000870
:1000B00069070008000000000000000000000000C8
:1000C00010B5064C2378002B07D1054B002B02D02E
:1000D000044800E000BF0123237010BD040000208D
:1000E00000000000B4070008044B10B5002B03D03B
:1000F0000349044800E000BF10BDC04600000000F6
:1001000008000020B4070008002243088B4274D383
:1001100003098B425FD3030A8B4244D3030B8B4208
:1001200028D3030C8B420DD3FF22090212BA030C11
:100130008B4202D31212090265D0030B8B4219D3F2
:1001400000E0090AC30B8B4201D3CB03C01A524112
:10015000830B8B4201D38B03C01A5241430B8B425A
:1001600001D34B03C01A5241030B8B4201D30B0343
:10017000C01A5241C30A8B4201D3CB02C01A52416A
:10018000830A8B4201D38B02C01A5241430A8B422D
:1001900001D34B02C01A5241030A8B4201D30B0216
:1001A000C01A5241CDD2C3098B4201D3CB01C01A30
:1001B000524183098B4201D38B01C01A524143093A
:1001C0008B4201D34B01C01A524103098B4201D328
:1001D0000B01C01A5241C3088B4201D3CB00C01A95
:1001E000524183088B4201D38B00C01A524143080D
:1001F0008B4201D34B00C01A5241411A00D2014632
:10020000524110467047FFE701B5002000F006F8A4
:1002100002BDC0460029F7D076E770477047C04658
:10022000802319491B06F0B580228B61002383B01F
:100230000193D2010B691F0017401342FAD18025A8
:10024000802418210126104A2D0224069561019B65
:100250007F0001330193019B0139013301939461C4
:100260001069800B3040C7190029EFD180209561BB
:10027000019B000401330193019B784001330193FA
:10028000946103B0F0BDC046000400488023154AC5
:10029000DB02516910B50B4380215361124B134CA3
:1002A0001A68C90522401A601A68920092080A4327
:1002B0001A6058680E4A104058609A689200920876
:1002C0000A439A60DA682240DA60DA68920092089B
:1002D000DA60FFF7A5FFFFF7A3FFFFF7A1FFFFF726
:1002E0009FFF10BD0010024000040048FFFFFFCF39
:1002F000FF7FFFFF80230F4A9B02516910B50B431C
:10030000536190238021DB051A680B4849040240A1
:100310000A431A6080225C68520122435A609A683C
:10032000024011439960DA6810408022920402432F
:10033000DA6010BD00100240FFFFFFFCF0B50022A4
:1003400057464546DE464E46274BE0B51A60002329
:100350009C469846254B80259B4600239A46802341
:1003600080208026012785B01B0421492D06C0016D
:100370003602019353468D6103930B691A000240C4
:100380000342FAD118248E61039B52000133039378
:10039000039B013C013303938D610B699B0B3B4035
:1003A0009A18002CEFD1019B8E615A40039B5C464A
:1003B00001330393039B90440133039363469B00F3
:1003C0008D61E25001239946CC446346142BD1D170
:1003D00014214046FFF798FE05B0F0BCBB46B2467C
:1003E000A946A046F0BDC0467000002020000020B5
:1003F0000004004803212D4B30B51A6B2C4D8A4365
:100400001A6380229969D2010A439A61802259694C
:1004100092020A435A6190238022DB051968120375
:1004200029400A431A6080221968224C9203214015
:100430000A431A605A68204980200A405A605A6864
:100440001E49C0020A4080215A609A6849032A4026
:1004500002439A609A6822400A439A60DA682A4006
:100460001043D860DA6822401143D960F0215A6AFB
:100470008A43E0390A435A625A6A1149114080227C
:1004800052000A43A2215A6200220E4BFF311A6029
:100490005A609A60D9601A615A619A611A621A6840
:1004A0009939FF390A431A6030BDC0460010024036
:1004B000FFFFF3FFFFFFCFFFFFFDFFFFFFFBFFFF8E
:1004C000FFF0FFFF003801400121234A10B51368F7
:1004D0000B43136013681942FCD0204B1A68114378
:1004E000196002211A681142FCD0F8211A688A4367
:1004F00078390A431A605A6819491140A0229203B8
:100500000A430F215A60DA6A8A43DA628022196844
:1005100052040A4380211A60104A890413680B426E
:10052000FCD0F02153688B43536053680D490B4056
:100530000321536053688B4301390B4353600C22F2
:1005400006494B681340082BFBD1074800F0CCF854
:10055000054800F0D9F810BD00200240001002400C
:10056000FFFFC2FFFFF8FFFF006CDC02F0B5DE46C4
:1005700057464E464546012280244F4BE0B59969C7
:1005800085B011439961996964050A400292029A03
:10059000DA694A492243DA61C022DB691206234044
:1005A0000193019B0B6A80261B021B0A13430B62FB
:1005B000FFF78AFF9023DB059C61FFF767FEFFF7DB
:1005C00099FEFFF717FFFFF7B9FE83001B189B008A
:1005D0009B463B4B80279A468023DB0199460123AB
:1005E0005C469846374D36063F020023AE610393C2
:1005F00049464A462B6919401342F9D118228446CC
:100600004046AF61039B490001330393039B013ACA
:1006100001330393AE612B699B0B03405918002AE9
:10062000EED180231B044B409B466046AF61039B89
:1006300001330393039B01330393AE6158452ED2DC
:100640005B46214A1B1A934229D9802390225B01E1
:10065000D205936153461B681C4A9B00D2585346EF
:1006600050461B68591C0160584618499B00C850E9
:1006700053461B68821AA418142B02D15346002239
:100680001A6014212000FFF73FFD5B461B0A10494A
:100690009BB21A0A0A850F2213400B85A5E758451D
:1006A00004D95B46C01A084B9842CED880239022CA
:1006B0005B05D2059361CDE70010024000ED00E03C
:1006C00070000020000400481027000020000020D7
:1006D00000380140FEE7C046FEE7C0467047C0460E
:1006E0007047C0467047C046FA2110B58900FFF731
:1006F0000BFD0022034B013858609A6005321A60E6
:1007000010BDC04610E000E0014B18607047C046C5
:10071000000000207047C0460D488546FFF7FAFFED
:100720000C480D490D4A002302E0D458C45004334C
:10073000C4188C42F9D30A4A0A4C002301E0136022
:100740000432A242FBD300F011F8FFF70FFFFEE7DF
:10075000002000200000002004000020D407000832
:100760000400002074000020FEE7000070B50026A1
:100770000C4D0D4C641BA410A64209D1002600F0BC
:1007800019F80A4D0A4C641BA410A64205D170BD8D
:10079000B300EB5898470136EEE7B300EB589847A3
:1007A0000136F2E7CC070008CC070008CC070008A8
:1007B000D0070008F8B5C046F8BC08BC9E46704794
:0C07C000F8B5C046F8BC08BC9E46704767
:0407CC00E900000838
:0407D000C10000085C
:0407D40000127A0095
:0400000508000719CF
:00000001FF
